{
	"data": {
		"bytecode": {
			"linkReferences": {},
			"object": "608060405234801561001057600080fd5b50600280546001600160a01b03191633179055610f11806100326000396000f3fe60806040526004361061007a5760003560e01c8063282a3a491161004e578063282a3a491461010d5780634e0e6f9c1461012d5780638da5cb5b146101425780638dd2dd8c1461017a57600080fd5b8062c073e41461007f57806302282e12146100b757806316c0cd86146100d75780631aaae00f146100f8575b600080fd5b34801561008b57600080fd5b5061009f61009a366004610b22565b61018d565b6040516100ae93929190610d99565b60405180910390f35b3480156100c357600080fd5b5061009f6100d2366004610bc3565b6102cf565b6100ea6100e5366004610b5f565b610304565b6040519081526020016100ae565b34801561010457600080fd5b506000546100ea565b34801561011957600080fd5b506100ea610128366004610b22565b610576565b61014061013b366004610b22565b610821565b005b34801561014e57600080fd5b50600254610162906001600160a01b031681565b6040516001600160a01b0390911681526020016100ae565b610140610188366004610b22565b6108b8565b805160208183018101805160018083529383019290940191909120929052815490820180549192916101be90610e2d565b80601f01602080910402602001604051908101604052809291908181526020018280546101ea90610e2d565b80156102375780601f1061020c57610100808354040283529160200191610237565b820191906000526020600020905b81548152906001019060200180831161021a57829003601f168201915b50505050509080600201805461024c90610e2d565b80601f016020809104026020016040519081016040528092919081815260200182805461027890610e2d565b80156102c55780601f1061029a576101008083540402835291602001916102c5565b820191906000526020600020905b8154815290600101906020018083116102a857829003601f168201915b5050505050905083565b600081815481106102df57600080fd5b600091825260209091206003909102018054600182018054919350906101be90610e2d565b600034662386f26fc10000146103355760405162461bcd60e51b815260040161032c90610cfe565b60405180910390fd5b82806040516020016103479190610c08565b6040516020818303038152906040528051906020012060018260405161036d9190610c08565b908152602001604051809103902060010160405160200161038e9190610c24565b6040516020818303038152906040528051906020012014156103af57600080fd5b6000546014116104195760405162461bcd60e51b815260206004820152602f60248201527f54686572652063616e6e6f74206265206d6f7265207468616e2032302072657160448201526e756573747320617420612074696d6560881b606482015260840161032c565b60006040518060600160405280600081526020018681526020018581525090508060018660405161044a9190610c08565b908152602001604051809103902060008201518160000155602082015181600101908051906020019061047e929190610944565b506040820151805161049a916002840191602090910190610944565b505060008054600181018255908052825160039091027f290decd9548b62a8d60345a988386fc84ba6bc95484008f6362f93160ef3e56381019182556020808501518051869550610512937f290decd9548b62a8d60345a988386fc84ba6bc95484008f6362f93160ef3e56401929190910190610944565b506040820151805161052e916002840191602090910190610944565b5050507f9bb705f03d3e4c390f7d6d3ac9f45e80aff134ca0c80265572d06fcdf919cca13386604051610562929190610cc0565b60405180910390a150506000549392505050565b6002546000906001600160a01b031633146105d35760405162461bcd60e51b815260206004820152601b60248201527f4f6e6c792061646d696e206d61792064656c6574652063617264730000000000604482015260640161032c565b60005b6000548110156107cf57826040516020016105f19190610c08565b604051602081830303815290604052805190602001206000828154811061061a5761061a610eaf565b906000526020600020906003020160010160405160200161063b9190610c24565b6040516020818303038152906040528051906020012014156107bd576000805461066790600190610de6565b8154811061067757610677610eaf565b90600052602060002090600302016000828154811061069857610698610eaf565b90600052602060002090600302016000820154816000015560018201816001019080546106c490610e2d565b6106cf9291906109c8565b5060028201816002019080546106e490610e2d565b6106ef9291906109c8565b50506000805490915061070490600190610de6565b8154811061071457610714610eaf565b600091825260208220600390910201818155906107346001830182610a43565b610742600283016000610a43565b50506001836040516107549190610c08565b90815260405190819003602001902060008082556107756001830182610a43565b610783600283016000610a43565b50507f09823889c1fd7b3951729fdcc556bdb047835c047f7d5ab57863042e70cc1b1b836040516107b49190610ce4565b60405180910390a15b806107c781610e68565b9150506105d6565b5060008054806107e1576107e1610e99565b600082815260208120600360001990930192830201818155906108076001830182610a43565b610815600283016000610a43565b50509055505060005490565b34662386f26fc10000146108475760405162461bcd60e51b815260040161032c90610cfe565b600180826040516108589190610c08565b908152602001604051809103902060000160008282546108789190610de6565b90915550506040517fd3add23d6f4aa15e10b1b981d8788343efc0a86d77cc5c43736bf3bcfd053429906108ad908390610d60565b60405180910390a150565b34662386f26fc10000146108de5760405162461bcd60e51b815260040161032c90610cfe565b600180826040516108ef9190610c08565b9081526020016040518091039020600001600082825461090f9190610dce565b90915550506040517fd3add23d6f4aa15e10b1b981d8788343efc0a86d77cc5c43736bf3bcfd053429906108ad908390610d27565b82805461095090610e2d565b90600052602060002090601f01602090048101928261097257600085556109b8565b82601f1061098b57805160ff19168380011785556109b8565b828001600101855582156109b8579182015b828111156109b857825182559160200191906001019061099d565b506109c4929150610a80565b5090565b8280546109d490610e2d565b90600052602060002090601f0160209004810192826109f657600085556109b8565b82601f10610a0757805485556109b8565b828001600101855582156109b857600052602060002091601f016020900482015b828111156109b8578254825591600101919060010190610a28565b508054610a4f90610e2d565b6000825580601f10610a5f575050565b601f016020900490600052602060002090810190610a7d9190610a80565b50565b5b808211156109c45760008155600101610a81565b600082601f830112610aa657600080fd5b813567ffffffffffffffff80821115610ac157610ac1610ec5565b604051601f8301601f19908116603f01168101908282118183101715610ae957610ae9610ec5565b81604052838152866020858801011115610b0257600080fd5b836020870160208301376000602085830101528094505050505092915050565b600060208284031215610b3457600080fd5b813567ffffffffffffffff811115610b4b57600080fd5b610b5784828501610a95565b949350505050565b60008060408385031215610b7257600080fd5b823567ffffffffffffffff80821115610b8a57600080fd5b610b9686838701610a95565b93506020850135915080821115610bac57600080fd5b50610bb985828601610a95565b9150509250929050565b600060208284031215610bd557600080fd5b5035919050565b60008151808452610bf4816020860160208601610dfd565b601f01601f19169290920160200192915050565b60008251610c1a818460208701610dfd565b9190910192915050565b600080835481600182811c915080831680610c4057607f831692505b6020808410821415610c6057634e487b7160e01b86526022600452602486fd5b818015610c745760018114610c8557610cb2565b60ff19861689528489019650610cb2565b60008a81526020902060005b86811015610caa5781548b820152908501908301610c91565b505084890196505b509498975050505050505050565b6001600160a01b0383168152604060208201819052600090610b5790830184610bdc565b602081526000610cf76020830184610bdc565b9392505050565b6020808252600f908201526e139bdd08195b9bdd59da081c185a59608a1b604082015260600190565b60408152600f60408201526e1cd8dbdc99481a5b98dc99585cd959608a1b6060820152608060208201526000610cf76080830184610bdc565b60408152600f60408201526e1cd8dbdc9948191958dc99585cd959608a1b6060820152608060208201526000610cf76080830184610bdc565b838152606060208201526000610db26060830185610bdc565b8281036040840152610dc48185610bdc565b9695505050505050565b60008219821115610de157610de1610e83565b500190565b600082821015610df857610df8610e83565b500390565b60005b83811015610e18578181015183820152602001610e00565b83811115610e27576000848401525b50505050565b600181811c90821680610e4157607f821691505b60208210811415610e6257634e487b7160e01b600052602260045260246000fd5b50919050565b6000600019821415610e7c57610e7c610e83565b5060010190565b634e487b7160e01b600052601160045260246000fd5b634e487b7160e01b600052603160045260246000fd5b634e487b7160e01b600052603260045260246000fd5b634e487b7160e01b600052604160045260246000fdfea2646970667358221220da2e5a278662ed56a57efa871547e045175b71675cc54c686c050068f969ad8364736f6c63430008070033",
			"opcodes": "PUSH1 0x80 PUSH1 0x40 MSTORE CALLVALUE DUP1 ISZERO PUSH2 0x10 JUMPI PUSH1 0x0 DUP1 REVERT JUMPDEST POP PUSH1 0x2 DUP1 SLOAD PUSH1 0x1 PUSH1 0x1 PUSH1 0xA0 SHL SUB NOT AND CALLER OR SWAP1 SSTORE PUSH2 0xF11 DUP1 PUSH2 0x32 PUSH1 0x0 CODECOPY PUSH1 0x0 RETURN INVALID PUSH1 0x80 PUSH1 0x40 MSTORE PUSH1 0x4 CALLDATASIZE LT PUSH2 0x7A JUMPI PUSH1 0x0 CALLDATALOAD PUSH1 0xE0 SHR DUP1 PUSH4 0x282A3A49 GT PUSH2 0x4E JUMPI DUP1 PUSH4 0x282A3A49 EQ PUSH2 0x10D JUMPI DUP1 PUSH4 0x4E0E6F9C EQ PUSH2 0x12D JUMPI DUP1 PUSH4 0x8DA5CB5B EQ PUSH2 0x142 JUMPI DUP1 PUSH4 0x8DD2DD8C EQ PUSH2 0x17A JUMPI PUSH1 0x0 DUP1 REVERT JUMPDEST DUP1 PUSH3 0xC073E4 EQ PUSH2 0x7F JUMPI DUP1 PUSH4 0x2282E12 EQ PUSH2 0xB7 JUMPI DUP1 PUSH4 0x16C0CD86 EQ PUSH2 0xD7 JUMPI DUP1 PUSH4 0x1AAAE00F EQ PUSH2 0xF8 JUMPI JUMPDEST PUSH1 0x0 DUP1 REVERT JUMPDEST CALLVALUE DUP1 ISZERO PUSH2 0x8B JUMPI PUSH1 0x0 DUP1 REVERT JUMPDEST POP PUSH2 0x9F PUSH2 0x9A CALLDATASIZE PUSH1 0x4 PUSH2 0xB22 JUMP JUMPDEST PUSH2 0x18D JUMP JUMPDEST PUSH1 0x40 MLOAD PUSH2 0xAE SWAP4 SWAP3 SWAP2 SWAP1 PUSH2 0xD99 JUMP JUMPDEST PUSH1 0x40 MLOAD DUP1 SWAP2 SUB SWAP1 RETURN JUMPDEST CALLVALUE DUP1 ISZERO PUSH2 0xC3 JUMPI PUSH1 0x0 DUP1 REVERT JUMPDEST POP PUSH2 0x9F PUSH2 0xD2 CALLDATASIZE PUSH1 0x4 PUSH2 0xBC3 JUMP JUMPDEST PUSH2 0x2CF JUMP JUMPDEST PUSH2 0xEA PUSH2 0xE5 CALLDATASIZE PUSH1 0x4 PUSH2 0xB5F JUMP JUMPDEST PUSH2 0x304 JUMP JUMPDEST PUSH1 0x40 MLOAD SWAP1 DUP2 MSTORE PUSH1 0x20 ADD PUSH2 0xAE JUMP JUMPDEST CALLVALUE DUP1 ISZERO PUSH2 0x104 JUMPI PUSH1 0x0 DUP1 REVERT JUMPDEST POP PUSH1 0x0 SLOAD PUSH2 0xEA JUMP JUMPDEST CALLVALUE DUP1 ISZERO PUSH2 0x119 JUMPI PUSH1 0x0 DUP1 REVERT JUMPDEST POP PUSH2 0xEA PUSH2 0x128 CALLDATASIZE PUSH1 0x4 PUSH2 0xB22 JUMP JUMPDEST PUSH2 0x576 JUMP JUMPDEST PUSH2 0x140 PUSH2 0x13B CALLDATASIZE PUSH1 0x4 PUSH2 0xB22 JUMP JUMPDEST PUSH2 0x821 JUMP JUMPDEST STOP JUMPDEST CALLVALUE DUP1 ISZERO PUSH2 0x14E JUMPI PUSH1 0x0 DUP1 REVERT JUMPDEST POP PUSH1 0x2 SLOAD PUSH2 0x162 SWAP1 PUSH1 0x1 PUSH1 0x1 PUSH1 0xA0 SHL SUB AND DUP2 JUMP JUMPDEST PUSH1 0x40 MLOAD PUSH1 0x1 PUSH1 0x1 PUSH1 0xA0 SHL SUB SWAP1 SWAP2 AND DUP2 MSTORE PUSH1 0x20 ADD PUSH2 0xAE JUMP JUMPDEST PUSH2 0x140 PUSH2 0x188 CALLDATASIZE PUSH1 0x4 PUSH2 0xB22 JUMP JUMPDEST PUSH2 0x8B8 JUMP JUMPDEST DUP1 MLOAD PUSH1 0x20 DUP2 DUP4 ADD DUP2 ADD DUP1 MLOAD PUSH1 0x1 DUP1 DUP4 MSTORE SWAP4 DUP4 ADD SWAP3 SWAP1 SWAP5 ADD SWAP2 SWAP1 SWAP2 KECCAK256 SWAP3 SWAP1 MSTORE DUP2 SLOAD SWAP1 DUP3 ADD DUP1 SLOAD SWAP2 SWAP3 SWAP2 PUSH2 0x1BE SWAP1 PUSH2 0xE2D JUMP JUMPDEST DUP1 PUSH1 0x1F ADD PUSH1 0x20 DUP1 SWAP2 DIV MUL PUSH1 0x20 ADD PUSH1 0x40 MLOAD SWAP1 DUP2 ADD PUSH1 0x40 MSTORE DUP1 SWAP3 SWAP2 SWAP1 DUP2 DUP2 MSTORE PUSH1 0x20 ADD DUP3 DUP1 SLOAD PUSH2 0x1EA SWAP1 PUSH2 0xE2D JUMP JUMPDEST DUP1 ISZERO PUSH2 0x237 JUMPI DUP1 PUSH1 0x1F LT PUSH2 0x20C JUMPI PUSH2 0x100 DUP1 DUP4 SLOAD DIV MUL DUP4 MSTORE SWAP2 PUSH1 0x20 ADD SWAP2 PUSH2 0x237 JUMP JUMPDEST DUP3 ADD SWAP2 SWAP1 PUSH1 0x0 MSTORE PUSH1 0x20 PUSH1 0x0 KECCAK256 SWAP1 JUMPDEST DUP2 SLOAD DUP2 MSTORE SWAP1 PUSH1 0x1 ADD SWAP1 PUSH1 0x20 ADD DUP1 DUP4 GT PUSH2 0x21A JUMPI DUP3 SWAP1 SUB PUSH1 0x1F AND DUP3 ADD SWAP2 JUMPDEST POP POP POP POP POP SWAP1 DUP1 PUSH1 0x2 ADD DUP1 SLOAD PUSH2 0x24C SWAP1 PUSH2 0xE2D JUMP JUMPDEST DUP1 PUSH1 0x1F ADD PUSH1 0x20 DUP1 SWAP2 DIV MUL PUSH1 0x20 ADD PUSH1 0x40 MLOAD SWAP1 DUP2 ADD PUSH1 0x40 MSTORE DUP1 SWAP3 SWAP2 SWAP1 DUP2 DUP2 MSTORE PUSH1 0x20 ADD DUP3 DUP1 SLOAD PUSH2 0x278 SWAP1 PUSH2 0xE2D JUMP JUMPDEST DUP1 ISZERO PUSH2 0x2C5 JUMPI DUP1 PUSH1 0x1F LT PUSH2 0x29A JUMPI PUSH2 0x100 DUP1 DUP4 SLOAD DIV MUL DUP4 MSTORE SWAP2 PUSH1 0x20 ADD SWAP2 PUSH2 0x2C5 JUMP JUMPDEST DUP3 ADD SWAP2 SWAP1 PUSH1 0x0 MSTORE PUSH1 0x20 PUSH1 0x0 KECCAK256 SWAP1 JUMPDEST DUP2 SLOAD DUP2 MSTORE SWAP1 PUSH1 0x1 ADD SWAP1 PUSH1 0x20 ADD DUP1 DUP4 GT PUSH2 0x2A8 JUMPI DUP3 SWAP1 SUB PUSH1 0x1F AND DUP3 ADD SWAP2 JUMPDEST POP POP POP POP POP SWAP1 POP DUP4 JUMP JUMPDEST PUSH1 0x0 DUP2 DUP2 SLOAD DUP2 LT PUSH2 0x2DF JUMPI PUSH1 0x0 DUP1 REVERT JUMPDEST PUSH1 0x0 SWAP2 DUP3 MSTORE PUSH1 0x20 SWAP1 SWAP2 KECCAK256 PUSH1 0x3 SWAP1 SWAP2 MUL ADD DUP1 SLOAD PUSH1 0x1 DUP3 ADD DUP1 SLOAD SWAP2 SWAP4 POP SWAP1 PUSH2 0x1BE SWAP1 PUSH2 0xE2D JUMP JUMPDEST PUSH1 0x0 CALLVALUE PUSH7 0x2386F26FC10000 EQ PUSH2 0x335 JUMPI PUSH1 0x40 MLOAD PUSH3 0x461BCD PUSH1 0xE5 SHL DUP2 MSTORE PUSH1 0x4 ADD PUSH2 0x32C SWAP1 PUSH2 0xCFE JUMP JUMPDEST PUSH1 0x40 MLOAD DUP1 SWAP2 SUB SWAP1 REVERT JUMPDEST DUP3 DUP1 PUSH1 0x40 MLOAD PUSH1 0x20 ADD PUSH2 0x347 SWAP2 SWAP1 PUSH2 0xC08 JUMP JUMPDEST PUSH1 0x40 MLOAD PUSH1 0x20 DUP2 DUP4 SUB SUB DUP2 MSTORE SWAP1 PUSH1 0x40 MSTORE DUP1 MLOAD SWAP1 PUSH1 0x20 ADD KECCAK256 PUSH1 0x1 DUP3 PUSH1 0x40 MLOAD PUSH2 0x36D SWAP2 SWAP1 PUSH2 0xC08 JUMP JUMPDEST SWAP1 DUP2 MSTORE PUSH1 0x20 ADD PUSH1 0x40 MLOAD DUP1 SWAP2 SUB SWAP1 KECCAK256 PUSH1 0x1 ADD PUSH1 0x40 MLOAD PUSH1 0x20 ADD PUSH2 0x38E SWAP2 SWAP1 PUSH2 0xC24 JUMP JUMPDEST PUSH1 0x40 MLOAD PUSH1 0x20 DUP2 DUP4 SUB SUB DUP2 MSTORE SWAP1 PUSH1 0x40 MSTORE DUP1 MLOAD SWAP1 PUSH1 0x20 ADD KECCAK256 EQ ISZERO PUSH2 0x3AF JUMPI PUSH1 0x0 DUP1 REVERT JUMPDEST PUSH1 0x0 SLOAD PUSH1 0x14 GT PUSH2 0x419 JUMPI PUSH1 0x40 MLOAD PUSH3 0x461BCD PUSH1 0xE5 SHL DUP2 MSTORE PUSH1 0x20 PUSH1 0x4 DUP3 ADD MSTORE PUSH1 0x2F PUSH1 0x24 DUP3 ADD MSTORE PUSH32 0x54686572652063616E6E6F74206265206D6F7265207468616E20323020726571 PUSH1 0x44 DUP3 ADD MSTORE PUSH15 0x756573747320617420612074696D65 PUSH1 0x88 SHL PUSH1 0x64 DUP3 ADD MSTORE PUSH1 0x84 ADD PUSH2 0x32C JUMP JUMPDEST PUSH1 0x0 PUSH1 0x40 MLOAD DUP1 PUSH1 0x60 ADD PUSH1 0x40 MSTORE DUP1 PUSH1 0x0 DUP2 MSTORE PUSH1 0x20 ADD DUP7 DUP2 MSTORE PUSH1 0x20 ADD DUP6 DUP2 MSTORE POP SWAP1 POP DUP1 PUSH1 0x1 DUP7 PUSH1 0x40 MLOAD PUSH2 0x44A SWAP2 SWAP1 PUSH2 0xC08 JUMP JUMPDEST SWAP1 DUP2 MSTORE PUSH1 0x20 ADD PUSH1 0x40 MLOAD DUP1 SWAP2 SUB SWAP1 KECCAK256 PUSH1 0x0 DUP3 ADD MLOAD DUP2 PUSH1 0x0 ADD SSTORE PUSH1 0x20 DUP3 ADD MLOAD DUP2 PUSH1 0x1 ADD SWAP1 DUP1 MLOAD SWAP1 PUSH1 0x20 ADD SWAP1 PUSH2 0x47E SWAP3 SWAP2 SWAP1 PUSH2 0x944 JUMP JUMPDEST POP PUSH1 0x40 DUP3 ADD MLOAD DUP1 MLOAD PUSH2 0x49A SWAP2 PUSH1 0x2 DUP5 ADD SWAP2 PUSH1 0x20 SWAP1 SWAP2 ADD SWAP1 PUSH2 0x944 JUMP JUMPDEST POP POP PUSH1 0x0 DUP1 SLOAD PUSH1 0x1 DUP2 ADD DUP3 SSTORE SWAP1 DUP1 MSTORE DUP3 MLOAD PUSH1 0x3 SWAP1 SWAP2 MUL PUSH32 0x290DECD9548B62A8D60345A988386FC84BA6BC95484008F6362F93160EF3E563 DUP2 ADD SWAP2 DUP3 SSTORE PUSH1 0x20 DUP1 DUP6 ADD MLOAD DUP1 MLOAD DUP7 SWAP6 POP PUSH2 0x512 SWAP4 PUSH32 0x290DECD9548B62A8D60345A988386FC84BA6BC95484008F6362F93160EF3E564 ADD SWAP3 SWAP2 SWAP1 SWAP2 ADD SWAP1 PUSH2 0x944 JUMP JUMPDEST POP PUSH1 0x40 DUP3 ADD MLOAD DUP1 MLOAD PUSH2 0x52E SWAP2 PUSH1 0x2 DUP5 ADD SWAP2 PUSH1 0x20 SWAP1 SWAP2 ADD SWAP1 PUSH2 0x944 JUMP JUMPDEST POP POP POP PUSH32 0x9BB705F03D3E4C390F7D6D3AC9F45E80AFF134CA0C80265572D06FCDF919CCA1 CALLER DUP7 PUSH1 0x40 MLOAD PUSH2 0x562 SWAP3 SWAP2 SWAP1 PUSH2 0xCC0 JUMP JUMPDEST PUSH1 0x40 MLOAD DUP1 SWAP2 SUB SWAP1 LOG1 POP POP PUSH1 0x0 SLOAD SWAP4 SWAP3 POP POP POP JUMP JUMPDEST PUSH1 0x2 SLOAD PUSH1 0x0 SWAP1 PUSH1 0x1 PUSH1 0x1 PUSH1 0xA0 SHL SUB AND CALLER EQ PUSH2 0x5D3 JUMPI PUSH1 0x40 MLOAD PUSH3 0x461BCD PUSH1 0xE5 SHL DUP2 MSTORE PUSH1 0x20 PUSH1 0x4 DUP3 ADD MSTORE PUSH1 0x1B PUSH1 0x24 DUP3 ADD MSTORE PUSH32 0x4F6E6C792061646D696E206D61792064656C6574652063617264730000000000 PUSH1 0x44 DUP3 ADD MSTORE PUSH1 0x64 ADD PUSH2 0x32C JUMP JUMPDEST PUSH1 0x0 JUMPDEST PUSH1 0x0 SLOAD DUP2 LT ISZERO PUSH2 0x7CF JUMPI DUP3 PUSH1 0x40 MLOAD PUSH1 0x20 ADD PUSH2 0x5F1 SWAP2 SWAP1 PUSH2 0xC08 JUMP JUMPDEST PUSH1 0x40 MLOAD PUSH1 0x20 DUP2 DUP4 SUB SUB DUP2 MSTORE SWAP1 PUSH1 0x40 MSTORE DUP1 MLOAD SWAP1 PUSH1 0x20 ADD KECCAK256 PUSH1 0x0 DUP3 DUP2 SLOAD DUP2 LT PUSH2 0x61A JUMPI PUSH2 0x61A PUSH2 0xEAF JUMP JUMPDEST SWAP1 PUSH1 0x0 MSTORE PUSH1 0x20 PUSH1 0x0 KECCAK256 SWAP1 PUSH1 0x3 MUL ADD PUSH1 0x1 ADD PUSH1 0x40 MLOAD PUSH1 0x20 ADD PUSH2 0x63B SWAP2 SWAP1 PUSH2 0xC24 JUMP JUMPDEST PUSH1 0x40 MLOAD PUSH1 0x20 DUP2 DUP4 SUB SUB DUP2 MSTORE SWAP1 PUSH1 0x40 MSTORE DUP1 MLOAD SWAP1 PUSH1 0x20 ADD KECCAK256 EQ ISZERO PUSH2 0x7BD JUMPI PUSH1 0x0 DUP1 SLOAD PUSH2 0x667 SWAP1 PUSH1 0x1 SWAP1 PUSH2 0xDE6 JUMP JUMPDEST DUP2 SLOAD DUP2 LT PUSH2 0x677 JUMPI PUSH2 0x677 PUSH2 0xEAF JUMP JUMPDEST SWAP1 PUSH1 0x0 MSTORE PUSH1 0x20 PUSH1 0x0 KECCAK256 SWAP1 PUSH1 0x3 MUL ADD PUSH1 0x0 DUP3 DUP2 SLOAD DUP2 LT PUSH2 0x698 JUMPI PUSH2 0x698 PUSH2 0xEAF JUMP JUMPDEST SWAP1 PUSH1 0x0 MSTORE PUSH1 0x20 PUSH1 0x0 KECCAK256 SWAP1 PUSH1 0x3 MUL ADD PUSH1 0x0 DUP3 ADD SLOAD DUP2 PUSH1 0x0 ADD SSTORE PUSH1 0x1 DUP3 ADD DUP2 PUSH1 0x1 ADD SWAP1 DUP1 SLOAD PUSH2 0x6C4 SWAP1 PUSH2 0xE2D JUMP JUMPDEST PUSH2 0x6CF SWAP3 SWAP2 SWAP1 PUSH2 0x9C8 JUMP JUMPDEST POP PUSH1 0x2 DUP3 ADD DUP2 PUSH1 0x2 ADD SWAP1 DUP1 SLOAD PUSH2 0x6E4 SWAP1 PUSH2 0xE2D JUMP JUMPDEST PUSH2 0x6EF SWAP3 SWAP2 SWAP1 PUSH2 0x9C8 JUMP JUMPDEST POP POP PUSH1 0x0 DUP1 SLOAD SWAP1 SWAP2 POP PUSH2 0x704 SWAP1 PUSH1 0x1 SWAP1 PUSH2 0xDE6 JUMP JUMPDEST DUP2 SLOAD DUP2 LT PUSH2 0x714 JUMPI PUSH2 0x714 PUSH2 0xEAF JUMP JUMPDEST PUSH1 0x0 SWAP2 DUP3 MSTORE PUSH1 0x20 DUP3 KECCAK256 PUSH1 0x3 SWAP1 SWAP2 MUL ADD DUP2 DUP2 SSTORE SWAP1 PUSH2 0x734 PUSH1 0x1 DUP4 ADD DUP3 PUSH2 0xA43 JUMP JUMPDEST PUSH2 0x742 PUSH1 0x2 DUP4 ADD PUSH1 0x0 PUSH2 0xA43 JUMP JUMPDEST POP POP PUSH1 0x1 DUP4 PUSH1 0x40 MLOAD PUSH2 0x754 SWAP2 SWAP1 PUSH2 0xC08 JUMP JUMPDEST SWAP1 DUP2 MSTORE PUSH1 0x40 MLOAD SWAP1 DUP2 SWAP1 SUB PUSH1 0x20 ADD SWAP1 KECCAK256 PUSH1 0x0 DUP1 DUP3 SSTORE PUSH2 0x775 PUSH1 0x1 DUP4 ADD DUP3 PUSH2 0xA43 JUMP JUMPDEST PUSH2 0x783 PUSH1 0x2 DUP4 ADD PUSH1 0x0 PUSH2 0xA43 JUMP JUMPDEST POP POP PUSH32 0x9823889C1FD7B3951729FDCC556BDB047835C047F7D5AB57863042E70CC1B1B DUP4 PUSH1 0x40 MLOAD PUSH2 0x7B4 SWAP2 SWAP1 PUSH2 0xCE4 JUMP JUMPDEST PUSH1 0x40 MLOAD DUP1 SWAP2 SUB SWAP1 LOG1 JUMPDEST DUP1 PUSH2 0x7C7 DUP2 PUSH2 0xE68 JUMP JUMPDEST SWAP2 POP POP PUSH2 0x5D6 JUMP JUMPDEST POP PUSH1 0x0 DUP1 SLOAD DUP1 PUSH2 0x7E1 JUMPI PUSH2 0x7E1 PUSH2 0xE99 JUMP JUMPDEST PUSH1 0x0 DUP3 DUP2 MSTORE PUSH1 0x20 DUP2 KECCAK256 PUSH1 0x3 PUSH1 0x0 NOT SWAP1 SWAP4 ADD SWAP3 DUP4 MUL ADD DUP2 DUP2 SSTORE SWAP1 PUSH2 0x807 PUSH1 0x1 DUP4 ADD DUP3 PUSH2 0xA43 JUMP JUMPDEST PUSH2 0x815 PUSH1 0x2 DUP4 ADD PUSH1 0x0 PUSH2 0xA43 JUMP JUMPDEST POP POP SWAP1 SSTORE POP POP PUSH1 0x0 SLOAD SWAP1 JUMP JUMPDEST CALLVALUE PUSH7 0x2386F26FC10000 EQ PUSH2 0x847 JUMPI PUSH1 0x40 MLOAD PUSH3 0x461BCD PUSH1 0xE5 SHL DUP2 MSTORE PUSH1 0x4 ADD PUSH2 0x32C SWAP1 PUSH2 0xCFE JUMP JUMPDEST PUSH1 0x1 DUP1 DUP3 PUSH1 0x40 MLOAD PUSH2 0x858 SWAP2 SWAP1 PUSH2 0xC08 JUMP JUMPDEST SWAP1 DUP2 MSTORE PUSH1 0x20 ADD PUSH1 0x40 MLOAD DUP1 SWAP2 SUB SWAP1 KECCAK256 PUSH1 0x0 ADD PUSH1 0x0 DUP3 DUP3 SLOAD PUSH2 0x878 SWAP2 SWAP1 PUSH2 0xDE6 JUMP JUMPDEST SWAP1 SWAP2 SSTORE POP POP PUSH1 0x40 MLOAD PUSH32 0xD3ADD23D6F4AA15E10B1B981D8788343EFC0A86D77CC5C43736BF3BCFD053429 SWAP1 PUSH2 0x8AD SWAP1 DUP4 SWAP1 PUSH2 0xD60 JUMP JUMPDEST PUSH1 0x40 MLOAD DUP1 SWAP2 SUB SWAP1 LOG1 POP JUMP JUMPDEST CALLVALUE PUSH7 0x2386F26FC10000 EQ PUSH2 0x8DE JUMPI PUSH1 0x40 MLOAD PUSH3 0x461BCD PUSH1 0xE5 SHL DUP2 MSTORE PUSH1 0x4 ADD PUSH2 0x32C SWAP1 PUSH2 0xCFE JUMP JUMPDEST PUSH1 0x1 DUP1 DUP3 PUSH1 0x40 MLOAD PUSH2 0x8EF SWAP2 SWAP1 PUSH2 0xC08 JUMP JUMPDEST SWAP1 DUP2 MSTORE PUSH1 0x20 ADD PUSH1 0x40 MLOAD DUP1 SWAP2 SUB SWAP1 KECCAK256 PUSH1 0x0 ADD PUSH1 0x0 DUP3 DUP3 SLOAD PUSH2 0x90F SWAP2 SWAP1 PUSH2 0xDCE JUMP JUMPDEST SWAP1 SWAP2 SSTORE POP POP PUSH1 0x40 MLOAD PUSH32 0xD3ADD23D6F4AA15E10B1B981D8788343EFC0A86D77CC5C43736BF3BCFD053429 SWAP1 PUSH2 0x8AD SWAP1 DUP4 SWAP1 PUSH2 0xD27 JUMP JUMPDEST DUP3 DUP1 SLOAD PUSH2 0x950 SWAP1 PUSH2 0xE2D JUMP JUMPDEST SWAP1 PUSH1 0x0 MSTORE PUSH1 0x20 PUSH1 0x0 KECCAK256 SWAP1 PUSH1 0x1F ADD PUSH1 0x20 SWAP1 DIV DUP2 ADD SWAP3 DUP3 PUSH2 0x972 JUMPI PUSH1 0x0 DUP6 SSTORE PUSH2 0x9B8 JUMP JUMPDEST DUP3 PUSH1 0x1F LT PUSH2 0x98B JUMPI DUP1 MLOAD PUSH1 0xFF NOT AND DUP4 DUP1 ADD OR DUP6 SSTORE PUSH2 0x9B8 JUMP JUMPDEST DUP3 DUP1 ADD PUSH1 0x1 ADD DUP6 SSTORE DUP3 ISZERO PUSH2 0x9B8 JUMPI SWAP2 DUP3 ADD JUMPDEST DUP3 DUP2 GT ISZERO PUSH2 0x9B8 JUMPI DUP3 MLOAD DUP3 SSTORE SWAP2 PUSH1 0x20 ADD SWAP2 SWAP1 PUSH1 0x1 ADD SWAP1 PUSH2 0x99D JUMP JUMPDEST POP PUSH2 0x9C4 SWAP3 SWAP2 POP PUSH2 0xA80 JUMP JUMPDEST POP SWAP1 JUMP JUMPDEST DUP3 DUP1 SLOAD PUSH2 0x9D4 SWAP1 PUSH2 0xE2D JUMP JUMPDEST SWAP1 PUSH1 0x0 MSTORE PUSH1 0x20 PUSH1 0x0 KECCAK256 SWAP1 PUSH1 0x1F ADD PUSH1 0x20 SWAP1 DIV DUP2 ADD SWAP3 DUP3 PUSH2 0x9F6 JUMPI PUSH1 0x0 DUP6 SSTORE PUSH2 0x9B8 JUMP JUMPDEST DUP3 PUSH1 0x1F LT PUSH2 0xA07 JUMPI DUP1 SLOAD DUP6 SSTORE PUSH2 0x9B8 JUMP JUMPDEST DUP3 DUP1 ADD PUSH1 0x1 ADD DUP6 SSTORE DUP3 ISZERO PUSH2 0x9B8 JUMPI PUSH1 0x0 MSTORE PUSH1 0x20 PUSH1 0x0 KECCAK256 SWAP2 PUSH1 0x1F ADD PUSH1 0x20 SWAP1 DIV DUP3 ADD JUMPDEST DUP3 DUP2 GT ISZERO PUSH2 0x9B8 JUMPI DUP3 SLOAD DUP3 SSTORE SWAP2 PUSH1 0x1 ADD SWAP2 SWAP1 PUSH1 0x1 ADD SWAP1 PUSH2 0xA28 JUMP JUMPDEST POP DUP1 SLOAD PUSH2 0xA4F SWAP1 PUSH2 0xE2D JUMP JUMPDEST PUSH1 0x0 DUP3 SSTORE DUP1 PUSH1 0x1F LT PUSH2 0xA5F JUMPI POP POP JUMP JUMPDEST PUSH1 0x1F ADD PUSH1 0x20 SWAP1 DIV SWAP1 PUSH1 0x0 MSTORE PUSH1 0x20 PUSH1 0x0 KECCAK256 SWAP1 DUP2 ADD SWAP1 PUSH2 0xA7D SWAP2 SWAP1 PUSH2 0xA80 JUMP JUMPDEST POP JUMP JUMPDEST JUMPDEST DUP1 DUP3 GT ISZERO PUSH2 0x9C4 JUMPI PUSH1 0x0 DUP2 SSTORE PUSH1 0x1 ADD PUSH2 0xA81 JUMP JUMPDEST PUSH1 0x0 DUP3 PUSH1 0x1F DUP4 ADD SLT PUSH2 0xAA6 JUMPI PUSH1 0x0 DUP1 REVERT JUMPDEST DUP2 CALLDATALOAD PUSH8 0xFFFFFFFFFFFFFFFF DUP1 DUP3 GT ISZERO PUSH2 0xAC1 JUMPI PUSH2 0xAC1 PUSH2 0xEC5 JUMP JUMPDEST PUSH1 0x40 MLOAD PUSH1 0x1F DUP4 ADD PUSH1 0x1F NOT SWAP1 DUP2 AND PUSH1 0x3F ADD AND DUP2 ADD SWAP1 DUP3 DUP3 GT DUP2 DUP4 LT OR ISZERO PUSH2 0xAE9 JUMPI PUSH2 0xAE9 PUSH2 0xEC5 JUMP JUMPDEST DUP2 PUSH1 0x40 MSTORE DUP4 DUP2 MSTORE DUP7 PUSH1 0x20 DUP6 DUP9 ADD ADD GT ISZERO PUSH2 0xB02 JUMPI PUSH1 0x0 DUP1 REVERT JUMPDEST DUP4 PUSH1 0x20 DUP8 ADD PUSH1 0x20 DUP4 ADD CALLDATACOPY PUSH1 0x0 PUSH1 0x20 DUP6 DUP4 ADD ADD MSTORE DUP1 SWAP5 POP POP POP POP POP SWAP3 SWAP2 POP POP JUMP JUMPDEST PUSH1 0x0 PUSH1 0x20 DUP3 DUP5 SUB SLT ISZERO PUSH2 0xB34 JUMPI PUSH1 0x0 DUP1 REVERT JUMPDEST DUP2 CALLDATALOAD PUSH8 0xFFFFFFFFFFFFFFFF DUP2 GT ISZERO PUSH2 0xB4B JUMPI PUSH1 0x0 DUP1 REVERT JUMPDEST PUSH2 0xB57 DUP5 DUP3 DUP6 ADD PUSH2 0xA95 JUMP JUMPDEST SWAP5 SWAP4 POP POP POP POP JUMP JUMPDEST PUSH1 0x0 DUP1 PUSH1 0x40 DUP4 DUP6 SUB SLT ISZERO PUSH2 0xB72 JUMPI PUSH1 0x0 DUP1 REVERT JUMPDEST DUP3 CALLDATALOAD PUSH8 0xFFFFFFFFFFFFFFFF DUP1 DUP3 GT ISZERO PUSH2 0xB8A JUMPI PUSH1 0x0 DUP1 REVERT JUMPDEST PUSH2 0xB96 DUP7 DUP4 DUP8 ADD PUSH2 0xA95 JUMP JUMPDEST SWAP4 POP PUSH1 0x20 DUP6 ADD CALLDATALOAD SWAP2 POP DUP1 DUP3 GT ISZERO PUSH2 0xBAC JUMPI PUSH1 0x0 DUP1 REVERT JUMPDEST POP PUSH2 0xBB9 DUP6 DUP3 DUP7 ADD PUSH2 0xA95 JUMP JUMPDEST SWAP2 POP POP SWAP3 POP SWAP3 SWAP1 POP JUMP JUMPDEST PUSH1 0x0 PUSH1 0x20 DUP3 DUP5 SUB SLT ISZERO PUSH2 0xBD5 JUMPI PUSH1 0x0 DUP1 REVERT JUMPDEST POP CALLDATALOAD SWAP2 SWAP1 POP JUMP JUMPDEST PUSH1 0x0 DUP2 MLOAD DUP1 DUP5 MSTORE PUSH2 0xBF4 DUP2 PUSH1 0x20 DUP7 ADD PUSH1 0x20 DUP7 ADD PUSH2 0xDFD JUMP JUMPDEST PUSH1 0x1F ADD PUSH1 0x1F NOT AND SWAP3 SWAP1 SWAP3 ADD PUSH1 0x20 ADD SWAP3 SWAP2 POP POP JUMP JUMPDEST PUSH1 0x0 DUP3 MLOAD PUSH2 0xC1A DUP2 DUP5 PUSH1 0x20 DUP8 ADD PUSH2 0xDFD JUMP JUMPDEST SWAP2 SWAP1 SWAP2 ADD SWAP3 SWAP2 POP POP JUMP JUMPDEST PUSH1 0x0 DUP1 DUP4 SLOAD DUP2 PUSH1 0x1 DUP3 DUP2 SHR SWAP2 POP DUP1 DUP4 AND DUP1 PUSH2 0xC40 JUMPI PUSH1 0x7F DUP4 AND SWAP3 POP JUMPDEST PUSH1 0x20 DUP1 DUP5 LT DUP3 EQ ISZERO PUSH2 0xC60 JUMPI PUSH4 0x4E487B71 PUSH1 0xE0 SHL DUP7 MSTORE PUSH1 0x22 PUSH1 0x4 MSTORE PUSH1 0x24 DUP7 REVERT JUMPDEST DUP2 DUP1 ISZERO PUSH2 0xC74 JUMPI PUSH1 0x1 DUP2 EQ PUSH2 0xC85 JUMPI PUSH2 0xCB2 JUMP JUMPDEST PUSH1 0xFF NOT DUP7 AND DUP10 MSTORE DUP5 DUP10 ADD SWAP7 POP PUSH2 0xCB2 JUMP JUMPDEST PUSH1 0x0 DUP11 DUP2 MSTORE PUSH1 0x20 SWAP1 KECCAK256 PUSH1 0x0 JUMPDEST DUP7 DUP2 LT ISZERO PUSH2 0xCAA JUMPI DUP2 SLOAD DUP12 DUP3 ADD MSTORE SWAP1 DUP6 ADD SWAP1 DUP4 ADD PUSH2 0xC91 JUMP JUMPDEST POP POP DUP5 DUP10 ADD SWAP7 POP JUMPDEST POP SWAP5 SWAP9 SWAP8 POP POP POP POP POP POP POP POP JUMP JUMPDEST PUSH1 0x1 PUSH1 0x1 PUSH1 0xA0 SHL SUB DUP4 AND DUP2 MSTORE PUSH1 0x40 PUSH1 0x20 DUP3 ADD DUP2 SWAP1 MSTORE PUSH1 0x0 SWAP1 PUSH2 0xB57 SWAP1 DUP4 ADD DUP5 PUSH2 0xBDC JUMP JUMPDEST PUSH1 0x20 DUP2 MSTORE PUSH1 0x0 PUSH2 0xCF7 PUSH1 0x20 DUP4 ADD DUP5 PUSH2 0xBDC JUMP JUMPDEST SWAP4 SWAP3 POP POP POP JUMP JUMPDEST PUSH1 0x20 DUP1 DUP3 MSTORE PUSH1 0xF SWAP1 DUP3 ADD MSTORE PUSH15 0x139BDD08195B9BDD59DA081C185A59 PUSH1 0x8A SHL PUSH1 0x40 DUP3 ADD MSTORE PUSH1 0x60 ADD SWAP1 JUMP JUMPDEST PUSH1 0x40 DUP2 MSTORE PUSH1 0xF PUSH1 0x40 DUP3 ADD MSTORE PUSH15 0x1CD8DBDC99481A5B98DC99585CD959 PUSH1 0x8A SHL PUSH1 0x60 DUP3 ADD MSTORE PUSH1 0x80 PUSH1 0x20 DUP3 ADD MSTORE PUSH1 0x0 PUSH2 0xCF7 PUSH1 0x80 DUP4 ADD DUP5 PUSH2 0xBDC JUMP JUMPDEST PUSH1 0x40 DUP2 MSTORE PUSH1 0xF PUSH1 0x40 DUP3 ADD MSTORE PUSH15 0x1CD8DBDC9948191958DC99585CD959 PUSH1 0x8A SHL PUSH1 0x60 DUP3 ADD MSTORE PUSH1 0x80 PUSH1 0x20 DUP3 ADD MSTORE PUSH1 0x0 PUSH2 0xCF7 PUSH1 0x80 DUP4 ADD DUP5 PUSH2 0xBDC JUMP JUMPDEST DUP4 DUP2 MSTORE PUSH1 0x60 PUSH1 0x20 DUP3 ADD MSTORE PUSH1 0x0 PUSH2 0xDB2 PUSH1 0x60 DUP4 ADD DUP6 PUSH2 0xBDC JUMP JUMPDEST DUP3 DUP2 SUB PUSH1 0x40 DUP5 ADD MSTORE PUSH2 0xDC4 DUP2 DUP6 PUSH2 0xBDC JUMP JUMPDEST SWAP7 SWAP6 POP POP POP POP POP POP JUMP JUMPDEST PUSH1 0x0 DUP3 NOT DUP3 GT ISZERO PUSH2 0xDE1 JUMPI PUSH2 0xDE1 PUSH2 0xE83 JUMP JUMPDEST POP ADD SWAP1 JUMP JUMPDEST PUSH1 0x0 DUP3 DUP3 LT ISZERO PUSH2 0xDF8 JUMPI PUSH2 0xDF8 PUSH2 0xE83 JUMP JUMPDEST POP SUB SWAP1 JUMP JUMPDEST PUSH1 0x0 JUMPDEST DUP4 DUP2 LT ISZERO PUSH2 0xE18 JUMPI DUP2 DUP2 ADD MLOAD DUP4 DUP3 ADD MSTORE PUSH1 0x20 ADD PUSH2 0xE00 JUMP JUMPDEST DUP4 DUP2 GT ISZERO PUSH2 0xE27 JUMPI PUSH1 0x0 DUP5 DUP5 ADD MSTORE JUMPDEST POP POP POP POP JUMP JUMPDEST PUSH1 0x1 DUP2 DUP2 SHR SWAP1 DUP3 AND DUP1 PUSH2 0xE41 JUMPI PUSH1 0x7F DUP3 AND SWAP2 POP JUMPDEST PUSH1 0x20 DUP3 LT DUP2 EQ ISZERO PUSH2 0xE62 JUMPI PUSH4 0x4E487B71 PUSH1 0xE0 SHL PUSH1 0x0 MSTORE PUSH1 0x22 PUSH1 0x4 MSTORE PUSH1 0x24 PUSH1 0x0 REVERT JUMPDEST POP SWAP2 SWAP1 POP JUMP JUMPDEST PUSH1 0x0 PUSH1 0x0 NOT DUP3 EQ ISZERO PUSH2 0xE7C JUMPI PUSH2 0xE7C PUSH2 0xE83 JUMP JUMPDEST POP PUSH1 0x1 ADD SWAP1 JUMP JUMPDEST PUSH4 0x4E487B71 PUSH1 0xE0 SHL PUSH1 0x0 MSTORE PUSH1 0x11 PUSH1 0x4 MSTORE PUSH1 0x24 PUSH1 0x0 REVERT JUMPDEST PUSH4 0x4E487B71 PUSH1 0xE0 SHL PUSH1 0x0 MSTORE PUSH1 0x31 PUSH1 0x4 MSTORE PUSH1 0x24 PUSH1 0x0 REVERT JUMPDEST PUSH4 0x4E487B71 PUSH1 0xE0 SHL PUSH1 0x0 MSTORE PUSH1 0x32 PUSH1 0x4 MSTORE PUSH1 0x24 PUSH1 0x0 REVERT JUMPDEST PUSH4 0x4E487B71 PUSH1 0xE0 SHL PUSH1 0x0 MSTORE PUSH1 0x41 PUSH1 0x4 MSTORE PUSH1 0x24 PUSH1 0x0 REVERT INVALID LOG2 PUSH5 0x6970667358 0x22 SLT KECCAK256 0xDA 0x2E GAS 0x27 DUP7 PUSH3 0xED56A5 PUSH31 0xFA871547E045175B71675CC54C686C050068F969AD8364736F6C6343000807 STOP CALLER "
		},
		"gasEstimates": {
			"creation": {
				"codeDepositCost": "771400",
				"executionCost": "25040",
				"totalCost": "796440"
			},
			"external": {
				"addDaoCard(string,string)": "infinite",
				"daoCards(uint256)": "infinite",
				"decreaseScore(string)": "infinite",
				"getAmountCards()": "2359",
				"increaseScore(string)": "infinite",
				"owner()": "2381",
				"removeCardRequest(string)": "infinite",
				"titleToCardMap(string)": "infinite"
			}
		},
		"methodIdentifiers": {
			"addDaoCard(string,string)": "16c0cd86",
			"daoCards(uint256)": "02282e12",
			"decreaseScore(string)": "4e0e6f9c",
			"getAmountCards()": "1aaae00f",
			"increaseScore(string)": "8dd2dd8c",
			"owner()": "8da5cb5b",
			"removeCardRequest(string)": "282a3a49",
			"titleToCardMap(string)": "00c073e4"
		}
	},
	"abi": [
		{
			"inputs": [],
			"stateMutability": "nonpayable",
			"type": "constructor"
		},
		{
			"anonymous": false,
			"inputs": [
				{
					"indexed": false,
					"internalType": "address",
					"name": "user",
					"type": "address"
				},
				{
					"indexed": false,
					"internalType": "string",
					"name": "title",
					"type": "string"
				}
			],
			"name": "AddedCard",
			"type": "event"
		},
		{
			"anonymous": false,
			"inputs": [
				{
					"indexed": false,
					"internalType": "string",
					"name": "title",
					"type": "string"
				}
			],
			"name": "DeletedCard",
			"type": "event"
		},
		{
			"anonymous": false,
			"inputs": [
				{
					"indexed": false,
					"internalType": "string",
					"name": "status",
					"type": "string"
				},
				{
					"indexed": false,
					"internalType": "string",
					"name": "title",
					"type": "string"
				}
			],
			"name": "ScoreChange",
			"type": "event"
		},
		{
			"inputs": [
				{
					"internalType": "string",
					"name": "_title",
					"type": "string"
				},
				{
					"internalType": "string",
					"name": "_description",
					"type": "string"
				}
			],
			"name": "addDaoCard",
			"outputs": [
				{
					"internalType": "uint256",
					"name": "",
					"type": "uint256"
				}
			],
			"stateMutability": "payable",
			"type": "function"
		},
		{
			"inputs": [
				{
					"internalType": "uint256",
					"name": "",
					"type": "uint256"
				}
			],
			"name": "daoCards",
			"outputs": [
				{
					"internalType": "uint256",
					"name": "score",
					"type": "uint256"
				},
				{
					"internalType": "string",
					"name": "title",
					"type": "string"
				},
				{
					"internalType": "string",
					"name": "description",
					"type": "string"
				}
			],
			"stateMutability": "view",
			"type": "function"
		},
		{
			"inputs": [
				{
					"internalType": "string",
					"name": "_title",
					"type": "string"
				}
			],
			"name": "decreaseScore",
			"outputs": [],
			"stateMutability": "payable",
			"type": "function"
		},
		{
			"inputs": [],
			"name": "getAmountCards",
			"outputs": [
				{
					"internalType": "uint256",
					"name": "",
					"type": "uint256"
				}
			],
			"stateMutability": "view",
			"type": "function"
		},
		{
			"inputs": [
				{
					"internalType": "string",
					"name": "_title",
					"type": "string"
				}
			],
			"name": "increaseScore",
			"outputs": [],
			"stateMutability": "payable",
			"type": "function"
		},
		{
			"inputs": [],
			"name": "owner",
			"outputs": [
				{
					"internalType": "address",
					"name": "",
					"type": "address"
				}
			],
			"stateMutability": "view",
			"type": "function"
		},
		{
			"inputs": [
				{
					"internalType": "string",
					"name": "_title",
					"type": "string"
				}
			],
			"name": "removeCardRequest",
			"outputs": [
				{
					"internalType": "uint256",
					"name": "",
					"type": "uint256"
				}
			],
			"stateMutability": "nonpayable",
			"type": "function"
		},
		{
			"inputs": [
				{
					"internalType": "string",
					"name": "",
					"type": "string"
				}
			],
			"name": "titleToCardMap",
			"outputs": [
				{
					"internalType": "uint256",
					"name": "score",
					"type": "uint256"
				},
				{
					"internalType": "string",
					"name": "title",
					"type": "string"
				},
				{
					"internalType": "string",
					"name": "description",
					"type": "string"
				}
			],
			"stateMutability": "view",
			"type": "function"
		}
	]
}